:1000000019C020C01FC01EC01DC01CC01BC01AC00C
:100010001AC018C017C016C015C024C013C012C023
:1000200011C010C00FC00EC00DC00CC02DC00AC042
:1000300009C008C011241FBECFEFCDBFDFE3DEBF74
:1000400059D090C0DDCF1F920F920FB60F9211249E
:100050008F9381E080930B0A8F910F900FBE0F90CA
:100060001F9018951F920F920FB60F9211248F9325
:1000700082E08093400A81E08093460A8F910F903E
:100080000FBE0F901F9018951F920F920FB60F92F0
:1000900011240F900FBE0F901F9018950F931F9370
:1000A000A09124110A2E000CBB0BBC5F2BE531E0A4
:1000B00047D08B019C01992324F401501C4F2F4FF2
:1000C0003F4FD901C801072E7AE0B595A7959795BE
:1000D00087957A95D1F7702DE0E0F8E080879187D9
:1000E00080E8858380EC868383E0878380E01F91AE
:1000F0000F91089588ED84BFC1E0C0936100C09363
:10010000620084E08093240487E0809320048EEFD3
:1001100080930004C3DF80E890E08093260A9093E8
:10012000270AC093000AC0930A0AE0E4FAE08FEFBE
:100130009FEF848795871092410AC5837894FFCFFB
:1001400005D0B7FF0895821B930B0895A29FB001BD
:10015000B39FC001A39F01D0B29F700D811D1124D8
:08016000911D0895F894FFCFF2
:00000001FF
