:1000000019C033C032C09AC030C02FC02EC02DC01E
:100010002CC02BC02BC05EC028C023C226C025C068
:1000200024C023C022C021C020C01FC0B4C11DC035
:100030001CC01BC011241FBECFEFCDBFDFE3DEBF4E
:100040001FE3A0E0BFE3E4E9F6E002C005900D92F3
:10005000A830B107D9F72FE3A8E0BFE301C01D9294
:10006000AD31B207E1F729D213C3CACF1F920F9265
:100070000FB60F9211242F938F939F93AF93BF933B
:10008000EF93FF9380911B3F90911C3F81329E44E0
:1000900090F08091043F9091053FA091063FB09170
:1000A000073F803A9542A642B1052CF4E0E0F4E027
:1000B00084818068848380E180930B0AFF91EF91B3
:1000C000BF91AF919F918F912F910F900FBE0F9085
:1000D0001F9018951F920F920FB60F9211242F9315
:1000E0008F939F93AF93BF93EF93FF9380911B3FA9
:1000F00090911C3F81329E4490F08091003F9091FE
:10010000013FA091023FB091033F803A9542A64241
:10011000B1052CF4E0E0F4E084818064848380E223
:1001200080930B0AFF91EF91BF91AF919F918F91B7
:100130002F910F900FBE0F901F9018951F920F9246
:100140000FB60F9211244F925F926F927F928F920F
:100150009F92AF92BF92CF92DF92EF92FF922F9336
:100160003F934F935F936F937F938F939F93AF933F
:10017000BF93EF93FF93CF93DF93CDB7DEB726976F
:10018000CDBFDEBF8091200A9091210A80931B3F52
:1001900090931C3F8091153F9091163F009709F175
:1001A00001978093153F9093163F4091043F5091E3
:1001B000053F6091063F7091073F8091173F9091F6
:1001C000183FA091193FB0911A3F840F951FA61FA9
:1001D000B71F8093043F9093053FA093063FB093D1
:1001E000073F80910F3F9091103F009709F10197D1
:1001F00080930F3F9093103F4091003F5091013FFB
:100200006091023F7091033F8091113F9091123FA6
:10021000A091133FB091143F840F951FA61FB71FE5
:100220008093003F9093013FA093023FB093033F20
:1002300080911B3F90911C3F89839A83C090043F1B
:10024000D090053FE090063FF090073F0F2EF0E181
:100250004F2EF7E25F2E612C712CF02DC701B601F5
:10026000A3019201BBD1A981BA81DAD1812C912C51
:1002700054018A94A5019401B1D129833A834B8317
:100280005C8380911B3F90911C3F8D839E83609186
:10029000003F7091013F8091023F9091033FA30185
:1002A00092019CD1AD81BE81BBD1A501940196D1B3
:1002B000E0E0FAE089819A8180A791A722A733A77D
:1002C000CD28CE28CF2849F482858F7E8287E0E032
:1002D000F4E08481806884830AC0E0E0FAE08285EB
:1002E00080618287E0E0F4E084818F77848380916D
:1002F000003F9091013FA091023FB091033F892BB5
:100300008A2B8B2B59F4E0E0FAE082858F7D82877F
:10031000E0E0F4E08481806484830AC0E0E0FAE0F5
:10032000828580628287E0E0F4E084818F7B848331
:10033000809128048695817091E0892780930E3FF3
:10034000E9E0F4E08081806180831092200A1092BD
:10035000210A2696CDBFDEBFDF91CF91FF91EF91AD
:10036000BF91AF919F918F917F916F915F914F91CD
:100370003F912F91FF90EF90DF90CF90BF90AF9083
:100380009F908F907F906F905F904F900F900FBED7
:100390000F901F9018951F920F920FB60F92112475
:1003A0008F939F93EF93FF938091093F9091000863
:1003B000E82FF0E0E65FF04C9083833061F481E059
:1003C0008093083F1092093FE0E4FAE0128613861A
:1003D00082E0808309C08F5F8093093FE0E4FAE008
:1003E0001286138683E08083FF91EF919F918F9116
:1003F0000F900FBE0F901F9018950F931F93A09111
:1004000024110A2E000CBB0BBC5F2BE531E002D19E
:100410008B019C01992324F401501C4F2F4F3F4F17
:10042000D901C801072E7AE0B595A79597958795CC
:100430007A95D1F7702DE0E0F8E08087918780E829
:10044000858380EC868383E0878380E01F910F9112
:100450000895E0E0F8E0948195FFFDCF80930208D5
:1004600008951F920F920FB60F9211242F933F936E
:100470004F935F936F937F938F939F93AF93BF93AC
:10048000EF93FF931092093F82E08093400A81E04E
:100490008093460A81E5DDDFFF91EF91BF91AF9137
:1004A0009F918F917F916F915F914F913F912F918C
:1004B0000F900FBE0F901F90189588ED84BFC1E07C
:1004C000C0936100C093620084E080932404809311
:1004D0002004E0E0F4E080EC808384818F778483E3
:1004E00084818F7B848383E08093140486DF85E09E
:1004F0008093000AE0E4FAE08FEF9FEF848795870E
:100500001092410AC58378940AE01FE3EE24EA942E
:10051000F12C8091083F8823E1F31092083FF80105
:10052000C281D0E0CC0FDD1FCC0FDD1F8081D70151
:10053000A81BB10920E137E26DD08090043F909074
:10054000053FA090063FB090073F681979098A09D6
:100550009B099E010D2E000C440B550B3FD02093A0
:10056000173F3093183F4093193F50931A3FC09361
:10057000153FD093163FF801C381D0E0CC0FDD1FAB
:10058000CC0FDD1F8181D701A81BB10920E137E223
:1005900041D08090003F9090013FA090023FB090EA
:1005A000033F681979098A099B099E010D2E000CE9
:1005B000440B550B13D02093113F3093123F4093BF
:1005C000133F5093143FC0930F3FD093103F83ECE1
:1005D00099E00197F1F700C000009BCF052E97FB33
:1005E00016F400940FD057FD05D024D007FC02D09C
:1005F00046F408C050954095309521953F4F4F4F98
:100600005F4F089590958095709561957F4F8F4FBE
:100610009F4F089531D0B7FF0895821B930B089523
:100620002BD0A59F900DB49F900DA49F800D911D80
:1006300011240895A1E21A2EAA1BBB1BFD010DC0B7
:10064000AA1FBB1FEE1FFF1FA217B307E407F50782
:1006500020F0A21BB30BE40BF50B661F771F881F5E
:10066000991F1A9469F760957095809590959B01F4
:10067000AC01BD01CF010895A29FB001B39FC0019D
:10068000A39F01D0B29F700D811D1124911D08956B
:04069000F894FFCF0C
:08069400F0E82600F0E8260062
:00000001FF
